{
	"docs.chain.link/samples/DataFeeds/DataConsumerV3.sol": {
		"DataConsumerV3": {
			"abi": [
				{
					"inputs": [],
					"stateMutability": "nonpayable",
					"type": "constructor"
				},
				{
					"inputs": [],
					"name": "getBtcUsdPrice",
					"outputs": [
						{
							"internalType": "int256",
							"name": "",
							"type": "int256"
						}
					],
					"stateMutability": "view",
					"type": "function"
				},
				{
					"inputs": [],
					"name": "getEthUsdPrice",
					"outputs": [
						{
							"internalType": "int256",
							"name": "",
							"type": "int256"
						}
					],
					"stateMutability": "view",
					"type": "function"
				},
				{
					"inputs": [],
					"name": "getLinkUsdPrice",
					"outputs": [
						{
							"internalType": "int256",
							"name": "",
							"type": "int256"
						}
					],
					"stateMutability": "view",
					"type": "function"
				}
			],
			"devdoc": {
				"kind": "dev",
				"methods": {},
				"version": 1
			},
			"evm": {
				"assembly": "    /* \"docs.chain.link/samples/DataFeeds/DataConsumerV3.sol\":653:2081  contract DataConsumerV3 {... */\n  mstore(0x40, 0x80)\n    /* \"docs.chain.link/samples/DataFeeds/DataConsumerV3.sol\":1092:1459  constructor() {... */\n  callvalue\n  dup1\n  iszero\n  tag_1\n  jumpi\n  0x00\n  dup1\n  revert\ntag_1:\n  pop\n    /* \"docs.chain.link/samples/DataFeeds/DataConsumerV3.sol\":1169:1211  0x1b44F3514812d835EB1BDB0acB33d3fA3351Ee43 */\n  0x1b44f3514812d835eb1bdb0acb33d3fa3351ee43\n    /* \"docs.chain.link/samples/DataFeeds/DataConsumerV3.sol\":1116:1131  btcUsdPriceFeed */\n  0x00\n  dup1\n    /* \"docs.chain.link/samples/DataFeeds/DataConsumerV3.sol\":1116:1221  btcUsdPriceFeed = AggregatorV3Interface(... */\n  0x0100\n  exp\n  dup2\n  sload\n  dup2\n  0xffffffffffffffffffffffffffffffffffffffff\n  mul\n  not\n  and\n  swap1\n  dup4\n  0xffffffffffffffffffffffffffffffffffffffff\n  and\n  mul\n  or\n  swap1\n  sstore\n  pop\n    /* \"docs.chain.link/samples/DataFeeds/DataConsumerV3.sol\":1284:1326  0x694AA1769357215DE4FAC081bf1f309aDC325306 */\n  0x694aa1769357215de4fac081bf1f309adc325306\n    /* \"docs.chain.link/samples/DataFeeds/DataConsumerV3.sol\":1231:1246  ethUsdPriceFeed */\n  0x01\n  0x00\n    /* \"docs.chain.link/samples/DataFeeds/DataConsumerV3.sol\":1231:1336  ethUsdPriceFeed = AggregatorV3Interface(... */\n  0x0100\n  exp\n  dup2\n  sload\n  dup2\n  0xffffffffffffffffffffffffffffffffffffffff\n  mul\n  not\n  and\n  swap1\n  dup4\n  0xffffffffffffffffffffffffffffffffffffffff\n  and\n  mul\n  or\n  swap1\n  sstore\n  pop\n    /* \"docs.chain.link/samples/DataFeeds/DataConsumerV3.sol\":1400:1442  0xc59E3633BAAC79493d908e63626716e204A45EdF */\n  0xc59e3633baac79493d908e63626716e204a45edf\n    /* \"docs.chain.link/samples/DataFeeds/DataConsumerV3.sol\":1346:1362  linkUsdPriceFeed */\n  0x02\n  0x00\n    /* \"docs.chain.link/samples/DataFeeds/DataConsumerV3.sol\":1346:1452  linkUsdPriceFeed = AggregatorV3Interface(... */\n  0x0100\n  exp\n  dup2\n  sload\n  dup2\n  0xffffffffffffffffffffffffffffffffffffffff\n  mul\n  not\n  and\n  swap1\n  dup4\n  0xffffffffffffffffffffffffffffffffffffffff\n  and\n  mul\n  or\n  swap1\n  sstore\n  pop\n    /* \"docs.chain.link/samples/DataFeeds/DataConsumerV3.sol\":653:2081  contract DataConsumerV3 {... */\n  dataSize(sub_0)\n  dup1\n  dataOffset(sub_0)\n  0x00\n  codecopy\n  0x00\n  return\nstop\n\nsub_0: assembly {\n        /* \"docs.chain.link/samples/DataFeeds/DataConsumerV3.sol\":653:2081  contract DataConsumerV3 {... */\n      mstore(0x40, 0x80)\n      callvalue\n      dup1\n      iszero\n      tag_1\n      jumpi\n      0x00\n      dup1\n      revert\n    tag_1:\n      pop\n      jumpi(tag_2, lt(calldatasize, 0x04))\n      shr(0xe0, calldataload(0x00))\n      dup1\n      0x64b60700\n      eq\n      tag_3\n      jumpi\n      dup1\n      0x7d9586b2\n      eq\n      tag_4\n      jumpi\n      dup1\n      0xa0a8045e\n      eq\n      tag_5\n      jumpi\n    tag_2:\n      0x00\n      dup1\n      revert\n        /* \"docs.chain.link/samples/DataFeeds/DataConsumerV3.sol\":1522:1665  function getBtcUsdPrice() public view returns (int) {... */\n    tag_3:\n      tag_6\n      tag_7\n      jump\t// in\n    tag_6:\n      mload(0x40)\n      tag_8\n      swap2\n      swap1\n      tag_9\n      jump\t// in\n    tag_8:\n      mload(0x40)\n      dup1\n      swap2\n      sub\n      swap1\n      return\n        /* \"docs.chain.link/samples/DataFeeds/DataConsumerV3.sol\":1934:2079  function getLinkUsdPrice() public view returns (int) {... */\n    tag_4:\n      tag_10\n      tag_11\n      jump\t// in\n    tag_10:\n      mload(0x40)\n      tag_12\n      swap2\n      swap1\n      tag_9\n      jump\t// in\n    tag_12:\n      mload(0x40)\n      dup1\n      swap2\n      sub\n      swap1\n      return\n        /* \"docs.chain.link/samples/DataFeeds/DataConsumerV3.sol\":1728:1871  function getEthUsdPrice() public view returns (int) {... */\n    tag_5:\n      tag_13\n      tag_14\n      jump\t// in\n    tag_13:\n      mload(0x40)\n      tag_15\n      swap2\n      swap1\n      tag_9\n      jump\t// in\n    tag_15:\n      mload(0x40)\n      dup1\n      swap2\n      sub\n      swap1\n      return\n        /* \"docs.chain.link/samples/DataFeeds/DataConsumerV3.sol\":1522:1665  function getBtcUsdPrice() public view returns (int) {... */\n    tag_7:\n        /* \"docs.chain.link/samples/DataFeeds/DataConsumerV3.sol\":1569:1572  int */\n      0x00\n        /* \"docs.chain.link/samples/DataFeeds/DataConsumerV3.sol\":1587:1596  int price */\n      dup1\n        /* \"docs.chain.link/samples/DataFeeds/DataConsumerV3.sol\":1603:1618  btcUsdPriceFeed */\n      0x00\n      dup1\n      sload\n      swap1\n      0x0100\n      exp\n      swap1\n      div\n      0xffffffffffffffffffffffffffffffffffffffff\n      and\n        /* \"docs.chain.link/samples/DataFeeds/DataConsumerV3.sol\":1603:1634  btcUsdPriceFeed.latestRoundData */\n      0xffffffffffffffffffffffffffffffffffffffff\n      and\n      0xfeaf968c\n        /* \"docs.chain.link/samples/DataFeeds/DataConsumerV3.sol\":1603:1636  btcUsdPriceFeed.latestRoundData() */\n      mload(0x40)\n      dup2\n      0xffffffff\n      and\n      0xe0\n      shl\n      dup2\n      mstore\n      0x04\n      add\n      0xa0\n      mload(0x40)\n      dup1\n      dup4\n      sub\n      dup2\n      dup7\n      gas\n      staticcall\n      iszero\n      dup1\n      iszero\n      tag_18\n      jumpi\n      returndatasize\n      0x00\n      dup1\n      returndatacopy\n      revert(0x00, returndatasize)\n    tag_18:\n      pop\n      pop\n      pop\n      pop\n      mload(0x40)\n      returndatasize\n      not(0x1f)\n      0x1f\n      dup3\n      add\n      and\n      dup3\n      add\n      dup1\n      0x40\n      mstore\n      pop\n      dup2\n      add\n      swap1\n      tag_19\n      swap2\n      swap1\n      tag_20\n      jump\t// in\n    tag_19:\n        /* \"docs.chain.link/samples/DataFeeds/DataConsumerV3.sol\":1584:1636  (, int price,,,) = btcUsdPriceFeed.latestRoundData() */\n      pop\n      pop\n      pop\n      swap2\n      pop\n      pop\n        /* \"docs.chain.link/samples/DataFeeds/DataConsumerV3.sol\":1653:1658  price */\n      dup1\n        /* \"docs.chain.link/samples/DataFeeds/DataConsumerV3.sol\":1646:1658  return price */\n      swap2\n      pop\n      pop\n        /* \"docs.chain.link/samples/DataFeeds/DataConsumerV3.sol\":1522:1665  function getBtcUsdPrice() public view returns (int) {... */\n      swap1\n      jump\t// out\n        /* \"docs.chain.link/samples/DataFeeds/DataConsumerV3.sol\":1934:2079  function getLinkUsdPrice() public view returns (int) {... */\n    tag_11:\n        /* \"docs.chain.link/samples/DataFeeds/DataConsumerV3.sol\":1982:1985  int */\n      0x00\n        /* \"docs.chain.link/samples/DataFeeds/DataConsumerV3.sol\":2000:2009  int price */\n      dup1\n        /* \"docs.chain.link/samples/DataFeeds/DataConsumerV3.sol\":2016:2032  linkUsdPriceFeed */\n      0x02\n      0x00\n      swap1\n      sload\n      swap1\n      0x0100\n      exp\n      swap1\n      div\n      0xffffffffffffffffffffffffffffffffffffffff\n      and\n        /* \"docs.chain.link/samples/DataFeeds/DataConsumerV3.sol\":2016:2048  linkUsdPriceFeed.latestRoundData */\n      0xffffffffffffffffffffffffffffffffffffffff\n      and\n      0xfeaf968c\n        /* \"docs.chain.link/samples/DataFeeds/DataConsumerV3.sol\":2016:2050  linkUsdPriceFeed.latestRoundData() */\n      mload(0x40)\n      dup2\n      0xffffffff\n      and\n      0xe0\n      shl\n      dup2\n      mstore\n      0x04\n      add\n      0xa0\n      mload(0x40)\n      dup1\n      dup4\n      sub\n      dup2\n      dup7\n      gas\n      staticcall\n      iszero\n      dup1\n      iszero\n      tag_23\n      jumpi\n      returndatasize\n      0x00\n      dup1\n      returndatacopy\n      revert(0x00, returndatasize)\n    tag_23:\n      pop\n      pop\n      pop\n      pop\n      mload(0x40)\n      returndatasize\n      not(0x1f)\n      0x1f\n      dup3\n      add\n      and\n      dup3\n      add\n      dup1\n      0x40\n      mstore\n      pop\n      dup2\n      add\n      swap1\n      tag_24\n      swap2\n      swap1\n      tag_20\n      jump\t// in\n    tag_24:\n        /* \"docs.chain.link/samples/DataFeeds/DataConsumerV3.sol\":1997:2050  (, int price,,,) = linkUsdPriceFeed.latestRoundData() */\n      pop\n      pop\n      pop\n      swap2\n      pop\n      pop\n        /* \"docs.chain.link/samples/DataFeeds/DataConsumerV3.sol\":2067:2072  price */\n      dup1\n        /* \"docs.chain.link/samples/DataFeeds/DataConsumerV3.sol\":2060:2072  return price */\n      swap2\n      pop\n      pop\n        /* \"docs.chain.link/samples/DataFeeds/DataConsumerV3.sol\":1934:2079  function getLinkUsdPrice() public view returns (int) {... */\n      swap1\n      jump\t// out\n        /* \"docs.chain.link/samples/DataFeeds/DataConsumerV3.sol\":1728:1871  function getEthUsdPrice() public view returns (int) {... */\n    tag_14:\n        /* \"docs.chain.link/samples/DataFeeds/DataConsumerV3.sol\":1775:1778  int */\n      0x00\n        /* \"docs.chain.link/samples/DataFeeds/DataConsumerV3.sol\":1793:1802  int price */\n      dup1\n        /* \"docs.chain.link/samples/DataFeeds/DataConsumerV3.sol\":1809:1824  ethUsdPriceFeed */\n      0x01\n      0x00\n      swap1\n      sload\n      swap1\n      0x0100\n      exp\n      swap1\n      div\n      0xffffffffffffffffffffffffffffffffffffffff\n      and\n        /* \"docs.chain.link/samples/DataFeeds/DataConsumerV3.sol\":1809:1840  ethUsdPriceFeed.latestRoundData */\n      0xffffffffffffffffffffffffffffffffffffffff\n      and\n      0xfeaf968c\n        /* \"docs.chain.link/samples/DataFeeds/DataConsumerV3.sol\":1809:1842  ethUsdPriceFeed.latestRoundData() */\n      mload(0x40)\n      dup2\n      0xffffffff\n      and\n      0xe0\n      shl\n      dup2\n      mstore\n      0x04\n      add\n      0xa0\n      mload(0x40)\n      dup1\n      dup4\n      sub\n      dup2\n      dup7\n      gas\n      staticcall\n      iszero\n      dup1\n      iszero\n      tag_27\n      jumpi\n      returndatasize\n      0x00\n      dup1\n      returndatacopy\n      revert(0x00, returndatasize)\n    tag_27:\n      pop\n      pop\n      pop\n      pop\n      mload(0x40)\n      returndatasize\n      not(0x1f)\n      0x1f\n      dup3\n      add\n      and\n      dup3\n      add\n      dup1\n      0x40\n      mstore\n      pop\n      dup2\n      add\n      swap1\n      tag_28\n      swap2\n      swap1\n      tag_20\n      jump\t// in\n    tag_28:\n        /* \"docs.chain.link/samples/DataFeeds/DataConsumerV3.sol\":1790:1842  (, int price,,,) = ethUsdPriceFeed.latestRoundData() */\n      pop\n      pop\n      pop\n      swap2\n      pop\n      pop\n        /* \"docs.chain.link/samples/DataFeeds/DataConsumerV3.sol\":1859:1864  price */\n      dup1\n        /* \"docs.chain.link/samples/DataFeeds/DataConsumerV3.sol\":1852:1864  return price */\n      swap2\n      pop\n      pop\n        /* \"docs.chain.link/samples/DataFeeds/DataConsumerV3.sol\":1728:1871  function getEthUsdPrice() public view returns (int) {... */\n      swap1\n      jump\t// out\n        /* \"#utility.yul\":7:83   */\n    tag_29:\n        /* \"#utility.yul\":43:50   */\n      0x00\n        /* \"#utility.yul\":72:77   */\n      dup2\n        /* \"#utility.yul\":61:77   */\n      swap1\n      pop\n        /* \"#utility.yul\":7:83   */\n      swap2\n      swap1\n      pop\n      jump\t// out\n        /* \"#utility.yul\":89:204   */\n    tag_30:\n        /* \"#utility.yul\":174:197   */\n      tag_45\n        /* \"#utility.yul\":191:196   */\n      dup2\n        /* \"#utility.yul\":174:197   */\n      tag_29\n      jump\t// in\n    tag_45:\n        /* \"#utility.yul\":169:172   */\n      dup3\n        /* \"#utility.yul\":162:198   */\n      mstore\n        /* \"#utility.yul\":89:204   */\n      pop\n      pop\n      jump\t// out\n        /* \"#utility.yul\":210:428   */\n    tag_9:\n        /* \"#utility.yul\":301:305   */\n      0x00\n        /* \"#utility.yul\":339:341   */\n      0x20\n        /* \"#utility.yul\":328:337   */\n      dup3\n        /* \"#utility.yul\":324:342   */\n      add\n        /* \"#utility.yul\":316:342   */\n      swap1\n      pop\n        /* \"#utility.yul\":352:421   */\n      tag_47\n        /* \"#utility.yul\":418:419   */\n      0x00\n        /* \"#utility.yul\":407:416   */\n      dup4\n        /* \"#utility.yul\":403:420   */\n      add\n        /* \"#utility.yul\":394:400   */\n      dup5\n        /* \"#utility.yul\":352:421   */\n      tag_30\n      jump\t// in\n    tag_47:\n        /* \"#utility.yul\":210:428   */\n      swap3\n      swap2\n      pop\n      pop\n      jump\t// out\n        /* \"#utility.yul\":515:632   */\n    tag_32:\n        /* \"#utility.yul\":624:625   */\n      0x00\n        /* \"#utility.yul\":621:622   */\n      dup1\n        /* \"#utility.yul\":614:626   */\n      revert\n        /* \"#utility.yul\":761:866   */\n    tag_34:\n        /* \"#utility.yul\":797:804   */\n      0x00\n        /* \"#utility.yul\":837:859   */\n      0xffffffffffffffffffff\n        /* \"#utility.yul\":830:835   */\n      dup3\n        /* \"#utility.yul\":826:860   */\n      and\n        /* \"#utility.yul\":815:860   */\n      swap1\n      pop\n        /* \"#utility.yul\":761:866   */\n      swap2\n      swap1\n      pop\n      jump\t// out\n        /* \"#utility.yul\":872:992   */\n    tag_35:\n        /* \"#utility.yul\":944:967   */\n      tag_53\n        /* \"#utility.yul\":961:966   */\n      dup2\n        /* \"#utility.yul\":944:967   */\n      tag_34\n      jump\t// in\n    tag_53:\n        /* \"#utility.yul\":937:942   */\n      dup2\n        /* \"#utility.yul\":934:968   */\n      eq\n        /* \"#utility.yul\":924:986   */\n      tag_54\n      jumpi\n        /* \"#utility.yul\":982:983   */\n      0x00\n        /* \"#utility.yul\":979:980   */\n      dup1\n        /* \"#utility.yul\":972:984   */\n      revert\n        /* \"#utility.yul\":924:986   */\n    tag_54:\n        /* \"#utility.yul\":872:992   */\n      pop\n      jump\t// out\n        /* \"#utility.yul\":998:1139   */\n    tag_36:\n        /* \"#utility.yul\":1054:1059   */\n      0x00\n        /* \"#utility.yul\":1085:1091   */\n      dup2\n        /* \"#utility.yul\":1079:1092   */\n      mload\n        /* \"#utility.yul\":1070:1092   */\n      swap1\n      pop\n        /* \"#utility.yul\":1101:1133   */\n      tag_56\n        /* \"#utility.yul\":1127:1132   */\n      dup2\n        /* \"#utility.yul\":1101:1133   */\n      tag_35\n      jump\t// in\n    tag_56:\n        /* \"#utility.yul\":998:1139   */\n      swap3\n      swap2\n      pop\n      pop\n      jump\t// out\n        /* \"#utility.yul\":1145:1265   */\n    tag_37:\n        /* \"#utility.yul\":1217:1240   */\n      tag_58\n        /* \"#utility.yul\":1234:1239   */\n      dup2\n        /* \"#utility.yul\":1217:1240   */\n      tag_29\n      jump\t// in\n    tag_58:\n        /* \"#utility.yul\":1210:1215   */\n      dup2\n        /* \"#utility.yul\":1207:1241   */\n      eq\n        /* \"#utility.yul\":1197:1259   */\n      tag_59\n      jumpi\n        /* \"#utility.yul\":1255:1256   */\n      0x00\n        /* \"#utility.yul\":1252:1253   */\n      dup1\n        /* \"#utility.yul\":1245:1257   */\n      revert\n        /* \"#utility.yul\":1197:1259   */\n    tag_59:\n        /* \"#utility.yul\":1145:1265   */\n      pop\n      jump\t// out\n        /* \"#utility.yul\":1271:1412   */\n    tag_38:\n        /* \"#utility.yul\":1327:1332   */\n      0x00\n        /* \"#utility.yul\":1358:1364   */\n      dup2\n        /* \"#utility.yul\":1352:1365   */\n      mload\n        /* \"#utility.yul\":1343:1365   */\n      swap1\n      pop\n        /* \"#utility.yul\":1374:1406   */\n      tag_61\n        /* \"#utility.yul\":1400:1405   */\n      dup2\n        /* \"#utility.yul\":1374:1406   */\n      tag_37\n      jump\t// in\n    tag_61:\n        /* \"#utility.yul\":1271:1412   */\n      swap3\n      swap2\n      pop\n      pop\n      jump\t// out\n        /* \"#utility.yul\":1418:1495   */\n    tag_39:\n        /* \"#utility.yul\":1455:1462   */\n      0x00\n        /* \"#utility.yul\":1484:1489   */\n      dup2\n        /* \"#utility.yul\":1473:1489   */\n      swap1\n      pop\n        /* \"#utility.yul\":1418:1495   */\n      swap2\n      swap1\n      pop\n      jump\t// out\n        /* \"#utility.yul\":1501:1623   */\n    tag_40:\n        /* \"#utility.yul\":1574:1598   */\n      tag_64\n        /* \"#utility.yul\":1592:1597   */\n      dup2\n        /* \"#utility.yul\":1574:1598   */\n      tag_39\n      jump\t// in\n    tag_64:\n        /* \"#utility.yul\":1567:1572   */\n      dup2\n        /* \"#utility.yul\":1564:1599   */\n      eq\n        /* \"#utility.yul\":1554:1617   */\n      tag_65\n      jumpi\n        /* \"#utility.yul\":1613:1614   */\n      0x00\n        /* \"#utility.yul\":1610:1611   */\n      dup1\n        /* \"#utility.yul\":1603:1615   */\n      revert\n        /* \"#utility.yul\":1554:1617   */\n    tag_65:\n        /* \"#utility.yul\":1501:1623   */\n      pop\n      jump\t// out\n        /* \"#utility.yul\":1629:1772   */\n    tag_41:\n        /* \"#utility.yul\":1686:1691   */\n      0x00\n        /* \"#utility.yul\":1717:1723   */\n      dup2\n        /* \"#utility.yul\":1711:1724   */\n      mload\n        /* \"#utility.yul\":1702:1724   */\n      swap1\n      pop\n        /* \"#utility.yul\":1733:1766   */\n      tag_67\n        /* \"#utility.yul\":1760:1765   */\n      dup2\n        /* \"#utility.yul\":1733:1766   */\n      tag_40\n      jump\t// in\n    tag_67:\n        /* \"#utility.yul\":1629:1772   */\n      swap3\n      swap2\n      pop\n      pop\n      jump\t// out\n        /* \"#utility.yul\":1778:2749   */\n    tag_20:\n        /* \"#utility.yul\":1881:1887   */\n      0x00\n        /* \"#utility.yul\":1889:1895   */\n      dup1\n        /* \"#utility.yul\":1897:1903   */\n      0x00\n        /* \"#utility.yul\":1905:1911   */\n      dup1\n        /* \"#utility.yul\":1913:1919   */\n      0x00\n        /* \"#utility.yul\":1962:1965   */\n      0xa0\n        /* \"#utility.yul\":1950:1959   */\n      dup7\n        /* \"#utility.yul\":1941:1948   */\n      dup9\n        /* \"#utility.yul\":1937:1960   */\n      sub\n        /* \"#utility.yul\":1933:1966   */\n      slt\n        /* \"#utility.yul\":1930:2050   */\n      iszero\n      tag_69\n      jumpi\n        /* \"#utility.yul\":1969:2048   */\n      tag_70\n      tag_32\n      jump\t// in\n    tag_70:\n        /* \"#utility.yul\":1930:2050   */\n    tag_69:\n        /* \"#utility.yul\":2089:2090   */\n      0x00\n        /* \"#utility.yul\":2114:2177   */\n      tag_71\n        /* \"#utility.yul\":2169:2176   */\n      dup9\n        /* \"#utility.yul\":2160:2166   */\n      dup3\n        /* \"#utility.yul\":2149:2158   */\n      dup10\n        /* \"#utility.yul\":2145:2167   */\n      add\n        /* \"#utility.yul\":2114:2177   */\n      tag_36\n      jump\t// in\n    tag_71:\n        /* \"#utility.yul\":2104:2177   */\n      swap6\n      pop\n        /* \"#utility.yul\":2060:2187   */\n      pop\n        /* \"#utility.yul\":2226:2228   */\n      0x20\n        /* \"#utility.yul\":2252:2315   */\n      tag_72\n        /* \"#utility.yul\":2307:2314   */\n      dup9\n        /* \"#utility.yul\":2298:2304   */\n      dup3\n        /* \"#utility.yul\":2287:2296   */\n      dup10\n        /* \"#utility.yul\":2283:2305   */\n      add\n        /* \"#utility.yul\":2252:2315   */\n      tag_38\n      jump\t// in\n    tag_72:\n        /* \"#utility.yul\":2242:2315   */\n      swap5\n      pop\n        /* \"#utility.yul\":2197:2325   */\n      pop\n        /* \"#utility.yul\":2364:2366   */\n      0x40\n        /* \"#utility.yul\":2390:2454   */\n      tag_73\n        /* \"#utility.yul\":2446:2453   */\n      dup9\n        /* \"#utility.yul\":2437:2443   */\n      dup3\n        /* \"#utility.yul\":2426:2435   */\n      dup10\n        /* \"#utility.yul\":2422:2444   */\n      add\n        /* \"#utility.yul\":2390:2454   */\n      tag_41\n      jump\t// in\n    tag_73:\n        /* \"#utility.yul\":2380:2454   */\n      swap4\n      pop\n        /* \"#utility.yul\":2335:2464   */\n      pop\n        /* \"#utility.yul\":2503:2505   */\n      0x60\n        /* \"#utility.yul\":2529:2593   */\n      tag_74\n        /* \"#utility.yul\":2585:2592   */\n      dup9\n        /* \"#utility.yul\":2576:2582   */\n      dup3\n        /* \"#utility.yul\":2565:2574   */\n      dup10\n        /* \"#utility.yul\":2561:2583   */\n      add\n        /* \"#utility.yul\":2529:2593   */\n      tag_41\n      jump\t// in\n    tag_74:\n        /* \"#utility.yul\":2519:2593   */\n      swap3\n      pop\n        /* \"#utility.yul\":2474:2603   */\n      pop\n        /* \"#utility.yul\":2642:2645   */\n      0x80\n        /* \"#utility.yul\":2669:2732   */\n      tag_75\n        /* \"#utility.yul\":2724:2731   */\n      dup9\n        /* \"#utility.yul\":2715:2721   */\n      dup3\n        /* \"#utility.yul\":2704:2713   */\n      dup10\n        /* \"#utility.yul\":2700:2722   */\n      add\n        /* \"#utility.yul\":2669:2732   */\n      tag_36\n      jump\t// in\n    tag_75:\n        /* \"#utility.yul\":2659:2732   */\n      swap2\n      pop\n        /* \"#utility.yul\":2613:2742   */\n      pop\n        /* \"#utility.yul\":1778:2749   */\n      swap3\n      swap6\n      pop\n      swap3\n      swap6\n      swap1\n      swap4\n      pop\n      jump\t// out\n\n    auxdata: 0xa2646970667358221220350441b8e1d1e163db705177d8fa21bc33c0e88989d83c5498c65fc07b4d80b064736f6c634300081a0033\n}\n",
				"bytecode": {
					"linkReferences": {},
					"object": "608060405234801561000f575f80fd5b50731b44f3514812d835eb1bdb0acb33d3fa3351ee435f806101000a81548173ffffffffffffffffffffffffffffffffffffffff021916908373ffffffffffffffffffffffffffffffffffffffff16021790555073694aa1769357215de4fac081bf1f309adc32530660015f6101000a81548173ffffffffffffffffffffffffffffffffffffffff021916908373ffffffffffffffffffffffffffffffffffffffff16021790555073c59e3633baac79493d908e63626716e204a45edf60025f6101000a81548173ffffffffffffffffffffffffffffffffffffffff021916908373ffffffffffffffffffffffffffffffffffffffff1602179055506103f0806101185f395ff3fe608060405234801561000f575f80fd5b506004361061003f575f3560e01c806364b60700146100435780637d9586b214610061578063a0a8045e1461007f575b5f80fd5b61004b61009d565b604051610058919061028a565b60405180910390f35b610069610138565b604051610076919061028a565b60405180910390f35b6100876101d5565b604051610094919061028a565b60405180910390f35b5f805f8054906101000a900473ffffffffffffffffffffffffffffffffffffffff1673ffffffffffffffffffffffffffffffffffffffff1663feaf968c6040518163ffffffff1660e01b815260040160a060405180830381865afa158015610107573d5f803e3d5ffd5b505050506040513d601f19601f8201168201806040525081019061012b9190610343565b5050509150508091505090565b5f8060025f9054906101000a900473ffffffffffffffffffffffffffffffffffffffff1673ffffffffffffffffffffffffffffffffffffffff1663feaf968c6040518163ffffffff1660e01b815260040160a060405180830381865afa1580156101a4573d5f803e3d5ffd5b505050506040513d601f19601f820116820180604052508101906101c89190610343565b5050509150508091505090565b5f8060015f9054906101000a900473ffffffffffffffffffffffffffffffffffffffff1673ffffffffffffffffffffffffffffffffffffffff1663feaf968c6040518163ffffffff1660e01b815260040160a060405180830381865afa158015610241573d5f803e3d5ffd5b505050506040513d601f19601f820116820180604052508101906102659190610343565b5050509150508091505090565b5f819050919050565b61028481610272565b82525050565b5f60208201905061029d5f83018461027b565b92915050565b5f80fd5b5f69ffffffffffffffffffff82169050919050565b6102c5816102a7565b81146102cf575f80fd5b50565b5f815190506102e0816102bc565b92915050565b6102ef81610272565b81146102f9575f80fd5b50565b5f8151905061030a816102e6565b92915050565b5f819050919050565b61032281610310565b811461032c575f80fd5b50565b5f8151905061033d81610319565b92915050565b5f805f805f60a0868803121561035c5761035b6102a3565b5b5f610369888289016102d2565b955050602061037a888289016102fc565b945050604061038b8882890161032f565b935050606061039c8882890161032f565b92505060806103ad888289016102d2565b915050929550929590935056fea2646970667358221220350441b8e1d1e163db705177d8fa21bc33c0e88989d83c5498c65fc07b4d80b064736f6c634300081a0033",
					"opcodes": "PUSH1 0x80 PUSH1 0x40 MSTORE CALLVALUE DUP1 ISZERO PUSH2 0xF JUMPI PUSH0 DUP1 REVERT JUMPDEST POP PUSH20 0x1B44F3514812D835EB1BDB0ACB33D3FA3351EE43 PUSH0 DUP1 PUSH2 0x100 EXP DUP2 SLOAD DUP2 PUSH20 0xFFFFFFFFFFFFFFFFFFFFFFFFFFFFFFFFFFFFFFFF MUL NOT AND SWAP1 DUP4 PUSH20 0xFFFFFFFFFFFFFFFFFFFFFFFFFFFFFFFFFFFFFFFF AND MUL OR SWAP1 SSTORE POP PUSH20 0x694AA1769357215DE4FAC081BF1F309ADC325306 PUSH1 0x1 PUSH0 PUSH2 0x100 EXP DUP2 SLOAD DUP2 PUSH20 0xFFFFFFFFFFFFFFFFFFFFFFFFFFFFFFFFFFFFFFFF MUL NOT AND SWAP1 DUP4 PUSH20 0xFFFFFFFFFFFFFFFFFFFFFFFFFFFFFFFFFFFFFFFF AND MUL OR SWAP1 SSTORE POP PUSH20 0xC59E3633BAAC79493D908E63626716E204A45EDF PUSH1 0x2 PUSH0 PUSH2 0x100 EXP DUP2 SLOAD DUP2 PUSH20 0xFFFFFFFFFFFFFFFFFFFFFFFFFFFFFFFFFFFFFFFF MUL NOT AND SWAP1 DUP4 PUSH20 0xFFFFFFFFFFFFFFFFFFFFFFFFFFFFFFFFFFFFFFFF AND MUL OR SWAP1 SSTORE POP PUSH2 0x3F0 DUP1 PUSH2 0x118 PUSH0 CODECOPY PUSH0 RETURN INVALID PUSH1 0x80 PUSH1 0x40 MSTORE CALLVALUE DUP1 ISZERO PUSH2 0xF JUMPI PUSH0 DUP1 REVERT JUMPDEST POP PUSH1 0x4 CALLDATASIZE LT PUSH2 0x3F JUMPI PUSH0 CALLDATALOAD PUSH1 0xE0 SHR DUP1 PUSH4 0x64B60700 EQ PUSH2 0x43 JUMPI DUP1 PUSH4 0x7D9586B2 EQ PUSH2 0x61 JUMPI DUP1 PUSH4 0xA0A8045E EQ PUSH2 0x7F JUMPI JUMPDEST PUSH0 DUP1 REVERT JUMPDEST PUSH2 0x4B PUSH2 0x9D JUMP JUMPDEST PUSH1 0x40 MLOAD PUSH2 0x58 SWAP2 SWAP1 PUSH2 0x28A JUMP JUMPDEST PUSH1 0x40 MLOAD DUP1 SWAP2 SUB SWAP1 RETURN JUMPDEST PUSH2 0x69 PUSH2 0x138 JUMP JUMPDEST PUSH1 0x40 MLOAD PUSH2 0x76 SWAP2 SWAP1 PUSH2 0x28A JUMP JUMPDEST PUSH1 0x40 MLOAD DUP1 SWAP2 SUB SWAP1 RETURN JUMPDEST PUSH2 0x87 PUSH2 0x1D5 JUMP JUMPDEST PUSH1 0x40 MLOAD PUSH2 0x94 SWAP2 SWAP1 PUSH2 0x28A JUMP JUMPDEST PUSH1 0x40 MLOAD DUP1 SWAP2 SUB SWAP1 RETURN JUMPDEST PUSH0 DUP1 PUSH0 DUP1 SLOAD SWAP1 PUSH2 0x100 EXP SWAP1 DIV PUSH20 0xFFFFFFFFFFFFFFFFFFFFFFFFFFFFFFFFFFFFFFFF AND PUSH20 0xFFFFFFFFFFFFFFFFFFFFFFFFFFFFFFFFFFFFFFFF AND PUSH4 0xFEAF968C PUSH1 0x40 MLOAD DUP2 PUSH4 0xFFFFFFFF AND PUSH1 0xE0 SHL DUP2 MSTORE PUSH1 0x4 ADD PUSH1 0xA0 PUSH1 0x40 MLOAD DUP1 DUP4 SUB DUP2 DUP7 GAS STATICCALL ISZERO DUP1 ISZERO PUSH2 0x107 JUMPI RETURNDATASIZE PUSH0 DUP1 RETURNDATACOPY RETURNDATASIZE PUSH0 REVERT JUMPDEST POP POP POP POP PUSH1 0x40 MLOAD RETURNDATASIZE PUSH1 0x1F NOT PUSH1 0x1F DUP3 ADD AND DUP3 ADD DUP1 PUSH1 0x40 MSTORE POP DUP2 ADD SWAP1 PUSH2 0x12B SWAP2 SWAP1 PUSH2 0x343 JUMP JUMPDEST POP POP POP SWAP2 POP POP DUP1 SWAP2 POP POP SWAP1 JUMP JUMPDEST PUSH0 DUP1 PUSH1 0x2 PUSH0 SWAP1 SLOAD SWAP1 PUSH2 0x100 EXP SWAP1 DIV PUSH20 0xFFFFFFFFFFFFFFFFFFFFFFFFFFFFFFFFFFFFFFFF AND PUSH20 0xFFFFFFFFFFFFFFFFFFFFFFFFFFFFFFFFFFFFFFFF AND PUSH4 0xFEAF968C PUSH1 0x40 MLOAD DUP2 PUSH4 0xFFFFFFFF AND PUSH1 0xE0 SHL DUP2 MSTORE PUSH1 0x4 ADD PUSH1 0xA0 PUSH1 0x40 MLOAD DUP1 DUP4 SUB DUP2 DUP7 GAS STATICCALL ISZERO DUP1 ISZERO PUSH2 0x1A4 JUMPI RETURNDATASIZE PUSH0 DUP1 RETURNDATACOPY RETURNDATASIZE PUSH0 REVERT JUMPDEST POP POP POP POP PUSH1 0x40 MLOAD RETURNDATASIZE PUSH1 0x1F NOT PUSH1 0x1F DUP3 ADD AND DUP3 ADD DUP1 PUSH1 0x40 MSTORE POP DUP2 ADD SWAP1 PUSH2 0x1C8 SWAP2 SWAP1 PUSH2 0x343 JUMP JUMPDEST POP POP POP SWAP2 POP POP DUP1 SWAP2 POP POP SWAP1 JUMP JUMPDEST PUSH0 DUP1 PUSH1 0x1 PUSH0 SWAP1 SLOAD SWAP1 PUSH2 0x100 EXP SWAP1 DIV PUSH20 0xFFFFFFFFFFFFFFFFFFFFFFFFFFFFFFFFFFFFFFFF AND PUSH20 0xFFFFFFFFFFFFFFFFFFFFFFFFFFFFFFFFFFFFFFFF AND PUSH4 0xFEAF968C PUSH1 0x40 MLOAD DUP2 PUSH4 0xFFFFFFFF AND PUSH1 0xE0 SHL DUP2 MSTORE PUSH1 0x4 ADD PUSH1 0xA0 PUSH1 0x40 MLOAD DUP1 DUP4 SUB DUP2 DUP7 GAS STATICCALL ISZERO DUP1 ISZERO PUSH2 0x241 JUMPI RETURNDATASIZE PUSH0 DUP1 RETURNDATACOPY RETURNDATASIZE PUSH0 REVERT JUMPDEST POP POP POP POP PUSH1 0x40 MLOAD RETURNDATASIZE PUSH1 0x1F NOT PUSH1 0x1F DUP3 ADD AND DUP3 ADD DUP1 PUSH1 0x40 MSTORE POP DUP2 ADD SWAP1 PUSH2 0x265 SWAP2 SWAP1 PUSH2 0x343 JUMP JUMPDEST POP POP POP SWAP2 POP POP DUP1 SWAP2 POP POP SWAP1 JUMP JUMPDEST PUSH0 DUP2 SWAP1 POP SWAP2 SWAP1 POP JUMP JUMPDEST PUSH2 0x284 DUP2 PUSH2 0x272 JUMP JUMPDEST DUP3 MSTORE POP POP JUMP JUMPDEST PUSH0 PUSH1 0x20 DUP3 ADD SWAP1 POP PUSH2 0x29D PUSH0 DUP4 ADD DUP5 PUSH2 0x27B JUMP JUMPDEST SWAP3 SWAP2 POP POP JUMP JUMPDEST PUSH0 DUP1 REVERT JUMPDEST PUSH0 PUSH10 0xFFFFFFFFFFFFFFFFFFFF DUP3 AND SWAP1 POP SWAP2 SWAP1 POP JUMP JUMPDEST PUSH2 0x2C5 DUP2 PUSH2 0x2A7 JUMP JUMPDEST DUP2 EQ PUSH2 0x2CF JUMPI PUSH0 DUP1 REVERT JUMPDEST POP JUMP JUMPDEST PUSH0 DUP2 MLOAD SWAP1 POP PUSH2 0x2E0 DUP2 PUSH2 0x2BC JUMP JUMPDEST SWAP3 SWAP2 POP POP JUMP JUMPDEST PUSH2 0x2EF DUP2 PUSH2 0x272 JUMP JUMPDEST DUP2 EQ PUSH2 0x2F9 JUMPI PUSH0 DUP1 REVERT JUMPDEST POP JUMP JUMPDEST PUSH0 DUP2 MLOAD SWAP1 POP PUSH2 0x30A DUP2 PUSH2 0x2E6 JUMP JUMPDEST SWAP3 SWAP2 POP POP JUMP JUMPDEST PUSH0 DUP2 SWAP1 POP SWAP2 SWAP1 POP JUMP JUMPDEST PUSH2 0x322 DUP2 PUSH2 0x310 JUMP JUMPDEST DUP2 EQ PUSH2 0x32C JUMPI PUSH0 DUP1 REVERT JUMPDEST POP JUMP JUMPDEST PUSH0 DUP2 MLOAD SWAP1 POP PUSH2 0x33D DUP2 PUSH2 0x319 JUMP JUMPDEST SWAP3 SWAP2 POP POP JUMP JUMPDEST PUSH0 DUP1 PUSH0 DUP1 PUSH0 PUSH1 0xA0 DUP7 DUP9 SUB SLT ISZERO PUSH2 0x35C JUMPI PUSH2 0x35B PUSH2 0x2A3 JUMP JUMPDEST JUMPDEST PUSH0 PUSH2 0x369 DUP9 DUP3 DUP10 ADD PUSH2 0x2D2 JUMP JUMPDEST SWAP6 POP POP PUSH1 0x20 PUSH2 0x37A DUP9 DUP3 DUP10 ADD PUSH2 0x2FC JUMP JUMPDEST SWAP5 POP POP PUSH1 0x40 PUSH2 0x38B DUP9 DUP3 DUP10 ADD PUSH2 0x32F JUMP JUMPDEST SWAP4 POP POP PUSH1 0x60 PUSH2 0x39C DUP9 DUP3 DUP10 ADD PUSH2 0x32F JUMP JUMPDEST SWAP3 POP POP PUSH1 0x80 PUSH2 0x3AD DUP9 DUP3 DUP10 ADD PUSH2 0x2D2 JUMP JUMPDEST SWAP2 POP POP SWAP3 SWAP6 POP SWAP3 SWAP6 SWAP1 SWAP4 POP JUMP INVALID LOG2 PUSH5 0x6970667358 0x22 SLT KECCAK256 CALLDATALOAD DIV COINBASE 0xB8 0xE1 0xD1 0xE1 PUSH4 0xDB705177 0xD8 STATICCALL 0x21 0xBC CALLER 0xC0 0xE8 DUP10 DUP10 0xD8 EXTCODECOPY SLOAD SWAP9 0xC6 PUSH0 0xC0 PUSH28 0x4D80B064736F6C634300081A00330000000000000000000000000000 "
				},
				"gasEstimates": {
					"creation": {
						"codeDepositCost": "201600",
						"executionCost": "73041",
						"totalCost": "274641"
					},
					"external": {
						"getBtcUsdPrice()": "infinite",
						"getEthUsdPrice()": "infinite",
						"getLinkUsdPrice()": "infinite"
					}
				},
				"methodIdentifiers": {
					"getBtcUsdPrice()": "64b60700",
					"getEthUsdPrice()": "a0a8045e",
					"getLinkUsdPrice()": "7d9586b2"
				}
			},
			"storageLayout": {
				"storage": [
					{
						"astId": 53,
						"contract": "docs.chain.link/samples/DataFeeds/DataConsumerV3.sol:DataConsumerV3",
						"label": "btcUsdPriceFeed",
						"offset": 0,
						"slot": "0",
						"type": "t_contract(AggregatorV3Interface)45"
					},
					{
						"astId": 56,
						"contract": "docs.chain.link/samples/DataFeeds/DataConsumerV3.sol:DataConsumerV3",
						"label": "ethUsdPriceFeed",
						"offset": 0,
						"slot": "1",
						"type": "t_contract(AggregatorV3Interface)45"
					},
					{
						"astId": 59,
						"contract": "docs.chain.link/samples/DataFeeds/DataConsumerV3.sol:DataConsumerV3",
						"label": "linkUsdPriceFeed",
						"offset": 0,
						"slot": "2",
						"type": "t_contract(AggregatorV3Interface)45"
					}
				],
				"types": {
					"t_contract(AggregatorV3Interface)45": {
						"encoding": "inplace",
						"label": "contract AggregatorV3Interface",
						"numberOfBytes": "20"
					}
				}
			},
			"userdoc": {
				"kind": "user",
				"methods": {
					"constructor": {
						"notice": "Network: Sepolia BTC/USD Aggregator: 0x1b44F3514812d835EB1BDB0acB33d3fA3351Ee43 ETH/USD Aggregator: 0x694AA1769357215DE4FAC081bf1f309aDC325306 LINK/USD Aggregator: 0xc59E3633BAAC79493d908e63626716e204A45EdF"
					},
					"getBtcUsdPrice()": {
						"notice": "Returns the latest BTC/USD price."
					},
					"getEthUsdPrice()": {
						"notice": "Returns the latest ETH/USD price."
					},
					"getLinkUsdPrice()": {
						"notice": "Returns the latest SOL/USD price."
					}
				},
				"notice": "If you are reading data feeds on L2 networks, you must check the latest answer from the L2 Sequencer Uptime Feed to ensure that the data is accurate in the event of an L2 sequencer outage. See the https://docs.chain.link/data-feeds/l2-sequencer-feeds page for details.",
				"version": 1
			}
		}
	}
}